{"abi":[{"type":"function","name":"ZERO_DELTA","inputs":[],"outputs":[{"name":"","type":"int256","internalType":"BalanceDelta"}],"stateMutability":"view"}],"bytecode":{"object":"0x60846032600b8282823980515f1a607314602657634e487b7160e01b5f525f60045260245ffd5b305f52607381538281f3fe73000000000000000000000000000000000000000030146080604052600436106032575f3560e01c806391cb4669146036575b5f80fd5b603c5f81565b60405190815260200160405180910390f3fea2646970667358221220cbe3fe96252737bfc61d97059c5abd1dbea3f9c503b532332bf243c8cc61551764736f6c634300081a0033","linkReferences":{}},"methodIdentifiers":{"ZERO_DELTA()":"91cb4669"},"id":14}