{"abi":[{"type":"constructor","inputs":[{"name":"_poolManager","type":"address","internalType":"contract IPoolManager"}],"stateMutability":"nonpayable"},{"type":"function","name":"afterAddLiquidity","inputs":[{"name":"","type":"address","internalType":"address"},{"name":"","type":"tuple","internalType":"struct PoolKey","components":[{"name":"currency0","type":"address","internalType":"Currency"},{"name":"currency1","type":"address","internalType":"Currency"},{"name":"fee","type":"uint24","internalType":"uint24"},{"name":"tickSpacing","type":"int24","internalType":"int24"},{"name":"hooks","type":"address","internalType":"contract IHooks"}]},{"name":"","type":"tuple","internalType":"struct IPoolManager.ModifyLiquidityParams","components":[{"name":"tickLower","type":"int24","internalType":"int24"},{"name":"tickUpper","type":"int24","internalType":"int24"},{"name":"liquidityDelta","type":"int256","internalType":"int256"},{"name":"salt","type":"bytes32","internalType":"bytes32"}]},{"name":"","type":"int256","internalType":"BalanceDelta"},{"name":"","type":"int256","internalType":"BalanceDelta"},{"name":"","type":"bytes","internalType":"bytes"}],"outputs":[{"name":"","type":"bytes4","internalType":"bytes4"},{"name":"","type":"int256","internalType":"BalanceDelta"}],"stateMutability":"nonpayable"},{"type":"function","name":"afterDonate","inputs":[{"name":"","type":"address","internalType":"address"},{"name":"","type":"tuple","internalType":"struct PoolKey","components":[{"name":"currency0","type":"address","internalType":"Currency"},{"name":"currency1","type":"address","internalType":"Currency"},{"name":"fee","type":"uint24","internalType":"uint24"},{"name":"tickSpacing","type":"int24","internalType":"int24"},{"name":"hooks","type":"address","internalType":"contract IHooks"}]},{"name":"","type":"uint256","internalType":"uint256"},{"name":"","type":"uint256","internalType":"uint256"},{"name":"","type":"bytes","internalType":"bytes"}],"outputs":[{"name":"","type":"bytes4","internalType":"bytes4"}],"stateMutability":"nonpayable"},{"type":"function","name":"afterInitialize","inputs":[{"name":"","type":"address","internalType":"address"},{"name":"","type":"tuple","internalType":"struct PoolKey","components":[{"name":"currency0","type":"address","internalType":"Currency"},{"name":"currency1","type":"address","internalType":"Currency"},{"name":"fee","type":"uint24","internalType":"uint24"},{"name":"tickSpacing","type":"int24","internalType":"int24"},{"name":"hooks","type":"address","internalType":"contract IHooks"}]},{"name":"","type":"uint160","internalType":"uint160"},{"name":"","type":"int24","internalType":"int24"},{"name":"","type":"bytes","internalType":"bytes"}],"outputs":[{"name":"","type":"bytes4","internalType":"bytes4"}],"stateMutability":"nonpayable"},{"type":"function","name":"afterRemoveLiquidity","inputs":[{"name":"","type":"address","internalType":"address"},{"name":"","type":"tuple","internalType":"struct PoolKey","components":[{"name":"currency0","type":"address","internalType":"Currency"},{"name":"currency1","type":"address","internalType":"Currency"},{"name":"fee","type":"uint24","internalType":"uint24"},{"name":"tickSpacing","type":"int24","internalType":"int24"},{"name":"hooks","type":"address","internalType":"contract IHooks"}]},{"name":"","type":"tuple","internalType":"struct IPoolManager.ModifyLiquidityParams","components":[{"name":"tickLower","type":"int24","internalType":"int24"},{"name":"tickUpper","type":"int24","internalType":"int24"},{"name":"liquidityDelta","type":"int256","internalType":"int256"},{"name":"salt","type":"bytes32","internalType":"bytes32"}]},{"name":"","type":"int256","internalType":"BalanceDelta"},{"name":"","type":"int256","internalType":"BalanceDelta"},{"name":"","type":"bytes","internalType":"bytes"}],"outputs":[{"name":"","type":"bytes4","internalType":"bytes4"},{"name":"","type":"int256","internalType":"BalanceDelta"}],"stateMutability":"nonpayable"},{"type":"function","name":"afterSwap","inputs":[{"name":"","type":"address","internalType":"address"},{"name":"key","type":"tuple","internalType":"struct PoolKey","components":[{"name":"currency0","type":"address","internalType":"Currency"},{"name":"currency1","type":"address","internalType":"Currency"},{"name":"fee","type":"uint24","internalType":"uint24"},{"name":"tickSpacing","type":"int24","internalType":"int24"},{"name":"hooks","type":"address","internalType":"contract IHooks"}]},{"name":"","type":"tuple","internalType":"struct IPoolManager.SwapParams","components":[{"name":"zeroForOne","type":"bool","internalType":"bool"},{"name":"amountSpecified","type":"int256","internalType":"int256"},{"name":"sqrtPriceLimitX96","type":"uint160","internalType":"uint160"}]},{"name":"","type":"int256","internalType":"BalanceDelta"},{"name":"","type":"bytes","internalType":"bytes"}],"outputs":[{"name":"","type":"bytes4","internalType":"bytes4"},{"name":"","type":"int128","internalType":"int128"}],"stateMutability":"nonpayable"},{"type":"function","name":"afterSwapCount","inputs":[{"name":"","type":"bytes32","internalType":"PoolId"}],"outputs":[{"name":"count","type":"uint256","internalType":"uint256"}],"stateMutability":"view"},{"type":"function","name":"beforeAddLiquidity","inputs":[{"name":"","type":"address","internalType":"address"},{"name":"key","type":"tuple","internalType":"struct PoolKey","components":[{"name":"currency0","type":"address","internalType":"Currency"},{"name":"currency1","type":"address","internalType":"Currency"},{"name":"fee","type":"uint24","internalType":"uint24"},{"name":"tickSpacing","type":"int24","internalType":"int24"},{"name":"hooks","type":"address","internalType":"contract IHooks"}]},{"name":"","type":"tuple","internalType":"struct IPoolManager.ModifyLiquidityParams","components":[{"name":"tickLower","type":"int24","internalType":"int24"},{"name":"tickUpper","type":"int24","internalType":"int24"},{"name":"liquidityDelta","type":"int256","internalType":"int256"},{"name":"salt","type":"bytes32","internalType":"bytes32"}]},{"name":"","type":"bytes","internalType":"bytes"}],"outputs":[{"name":"","type":"bytes4","internalType":"bytes4"}],"stateMutability":"nonpayable"},{"type":"function","name":"beforeAddLiquidityCount","inputs":[{"name":"","type":"bytes32","internalType":"PoolId"}],"outputs":[{"name":"count","type":"uint256","internalType":"uint256"}],"stateMutability":"view"},{"type":"function","name":"beforeDonate","inputs":[{"name":"","type":"address","internalType":"address"},{"name":"","type":"tuple","internalType":"struct PoolKey","components":[{"name":"currency0","type":"address","internalType":"Currency"},{"name":"currency1","type":"address","internalType":"Currency"},{"name":"fee","type":"uint24","internalType":"uint24"},{"name":"tickSpacing","type":"int24","internalType":"int24"},{"name":"hooks","type":"address","internalType":"contract IHooks"}]},{"name":"","type":"uint256","internalType":"uint256"},{"name":"","type":"uint256","internalType":"uint256"},{"name":"","type":"bytes","internalType":"bytes"}],"outputs":[{"name":"","type":"bytes4","internalType":"bytes4"}],"stateMutability":"nonpayable"},{"type":"function","name":"beforeInitialize","inputs":[{"name":"","type":"address","internalType":"address"},{"name":"","type":"tuple","internalType":"struct PoolKey","components":[{"name":"currency0","type":"address","internalType":"Currency"},{"name":"currency1","type":"address","internalType":"Currency"},{"name":"fee","type":"uint24","internalType":"uint24"},{"name":"tickSpacing","type":"int24","internalType":"int24"},{"name":"hooks","type":"address","internalType":"contract IHooks"}]},{"name":"","type":"uint160","internalType":"uint160"},{"name":"","type":"bytes","internalType":"bytes"}],"outputs":[{"name":"","type":"bytes4","internalType":"bytes4"}],"stateMutability":"nonpayable"},{"type":"function","name":"beforeRemoveLiquidity","inputs":[{"name":"","type":"address","internalType":"address"},{"name":"key","type":"tuple","internalType":"struct PoolKey","components":[{"name":"currency0","type":"address","internalType":"Currency"},{"name":"currency1","type":"address","internalType":"Currency"},{"name":"fee","type":"uint24","internalType":"uint24"},{"name":"tickSpacing","type":"int24","internalType":"int24"},{"name":"hooks","type":"address","internalType":"contract IHooks"}]},{"name":"","type":"tuple","internalType":"struct IPoolManager.ModifyLiquidityParams","components":[{"name":"tickLower","type":"int24","internalType":"int24"},{"name":"tickUpper","type":"int24","internalType":"int24"},{"name":"liquidityDelta","type":"int256","internalType":"int256"},{"name":"salt","type":"bytes32","internalType":"bytes32"}]},{"name":"","type":"bytes","internalType":"bytes"}],"outputs":[{"name":"","type":"bytes4","internalType":"bytes4"}],"stateMutability":"nonpayable"},{"type":"function","name":"beforeRemoveLiquidityCount","inputs":[{"name":"","type":"bytes32","internalType":"PoolId"}],"outputs":[{"name":"count","type":"uint256","internalType":"uint256"}],"stateMutability":"view"},{"type":"function","name":"beforeSwap","inputs":[{"name":"","type":"address","internalType":"address"},{"name":"key","type":"tuple","internalType":"struct PoolKey","components":[{"name":"currency0","type":"address","internalType":"Currency"},{"name":"currency1","type":"address","internalType":"Currency"},{"name":"fee","type":"uint24","internalType":"uint24"},{"name":"tickSpacing","type":"int24","internalType":"int24"},{"name":"hooks","type":"address","internalType":"contract IHooks"}]},{"name":"","type":"tuple","internalType":"struct IPoolManager.SwapParams","components":[{"name":"zeroForOne","type":"bool","internalType":"bool"},{"name":"amountSpecified","type":"int256","internalType":"int256"},{"name":"sqrtPriceLimitX96","type":"uint160","internalType":"uint160"}]},{"name":"","type":"bytes","internalType":"bytes"}],"outputs":[{"name":"","type":"bytes4","internalType":"bytes4"},{"name":"","type":"int256","internalType":"BeforeSwapDelta"},{"name":"","type":"uint24","internalType":"uint24"}],"stateMutability":"nonpayable"},{"type":"function","name":"beforeSwapCount","inputs":[{"name":"","type":"bytes32","internalType":"PoolId"}],"outputs":[{"name":"count","type":"uint256","internalType":"uint256"}],"stateMutability":"view"},{"type":"function","name":"getHookPermissions","inputs":[],"outputs":[{"name":"","type":"tuple","internalType":"struct Hooks.Permissions","components":[{"name":"beforeInitialize","type":"bool","internalType":"bool"},{"name":"afterInitialize","type":"bool","internalType":"bool"},{"name":"beforeAddLiquidity","type":"bool","internalType":"bool"},{"name":"afterAddLiquidity","type":"bool","internalType":"bool"},{"name":"beforeRemoveLiquidity","type":"bool","internalType":"bool"},{"name":"afterRemoveLiquidity","type":"bool","internalType":"bool"},{"name":"beforeSwap","type":"bool","internalType":"bool"},{"name":"afterSwap","type":"bool","internalType":"bool"},{"name":"beforeDonate","type":"bool","internalType":"bool"},{"name":"afterDonate","type":"bool","internalType":"bool"},{"name":"beforeSwapReturnDelta","type":"bool","internalType":"bool"},{"name":"afterSwapReturnDelta","type":"bool","internalType":"bool"},{"name":"afterAddLiquidityReturnDelta","type":"bool","internalType":"bool"},{"name":"afterRemoveLiquidityReturnDelta","type":"bool","internalType":"bool"}]}],"stateMutability":"pure"},{"type":"function","name":"poolManager","inputs":[],"outputs":[{"name":"","type":"address","internalType":"contract IPoolManager"}],"stateMutability":"view"},{"type":"function","name":"unlockCallback","inputs":[{"name":"data","type":"bytes","internalType":"bytes"}],"outputs":[{"name":"","type":"bytes","internalType":"bytes"}],"stateMutability":"nonpayable"},{"type":"error","name":"HookNotImplemented","inputs":[]},{"type":"error","name":"InvalidPool","inputs":[]},{"type":"error","name":"LockFailure","inputs":[]},{"type":"error","name":"NotPoolManager","inputs":[]},{"type":"error","name":"NotSelf","inputs":[]}],"bytecode":{"object":"0x60a060405234801561000f575f80fd5b50604051610fcd380380610fcd83398101604081905261002e916102a7565b6001600160a01b038116608052806100453061004c565b50506102d4565b61013f8161013a604080516101c0810182525f80825260208201819052918101829052606081018290526080810182905260a0810182905260c0810182905260e08101829052610100810182905261012081018290526101408101829052610160810182905261018081018290526101a081019190915250604080516101c0810182525f808252602082018190526001928201839052606082018190526080820183905260a0820181905260c0820183905260e0820192909252610100810182905261012081018290526101408101829052610160810182905261018081018290526101a081019190915290565b610142565b50565b80511515612000831615151415806101665750602081015115156110008316151514155b8061017d5750604081015115156108008316151514155b806101945750606081015115156104008316151514155b806101ab5750608081015115156102008316151514155b806101c2575060a081015115156101008316151514155b806101d8575060c0810151151560808316151514155b806101ee575060e0810151151560408316151514155b806102055750610100810151151560208316151514155b8061021c5750610120810151151560108316151514155b806102335750610140810151151560088316151514155b8061024a5750610160810151151560048316151514155b806102615750610180810151151560028316151514155b8061027857506101a0810151151560018316151514155b1561028e5761028e630732d7b560e51b83610292565b5050565b815f526001600160a01b03811660045260245ffd5b5f602082840312156102b7575f80fd5b81516001600160a01b03811681146102cd575f80fd5b9392505050565b608051610cda6102f35f395f81816103ca01526105320152610cda5ff3fe608060405234801561000f575f80fd5b5060043610610106575f3560e01c8063a910f80f1161009e578063c69399571161006e578063c693995714610368578063dacdbe7714610387578063db6a9451146103a6578063dc4c90d3146103c5578063e1b4af6914610263575f80fd5b8063a910f80f1461021f578063b47b2fb11461022d578063b6a8b0fa14610263578063c4e833ce14610271575f80fd5b80635c338d32116100d95780635c338d321461019f5780636c2bbe7e146101cc57806391dd7346146101ff5780639f063efc146101cc575f80fd5b806321d0ee701461010a578063259982e51461013b5780633440d8201461014e578063575e24b414610161575b5f80fd5b61011d6101183660046106fd565b610404565b6040516001600160e01b031990911681526020015b60405180910390f35b61011d6101493660046106fd565b610455565b61011d61015c366004610774565b61049f565b61017461016f3660046107de565b6104b9565b604080516001600160e01b03199094168452602084019290925262ffffff1690820152606001610132565b6101be6101ad366004610838565b5f6020819052908152604090205481565b604051908152602001610132565b6101df6101da36600461084f565b61050a565b604080516001600160e01b03199093168352602083019190915201610132565b61021261020d3660046108da565b610525565b6040516101329190610919565b61011d61015c36600461095f565b61024061023b3660046109e7565b610583565b604080516001600160e01b03199093168352600f9190910b602083015201610132565b61011d61015c366004610a4a565b61035b604080516101c0810182525f80825260208201819052918101829052606081018290526080810182905260a0810182905260c0810182905260e08101829052610100810182905261012081018290526101408101829052610160810182905261018081018290526101a081019190915250604080516101c0810182525f808252602082018190526001928201839052606082018190526080820183905260a0820181905260c0820183905260e0820192909252610100810182905261012081018290526101408101829052610160810182905261018081018290526101a081019190915290565b6040516101329190610aa4565b6101be610376366004610838565b60026020525f908152604090205481565b6101be610395366004610838565b60016020525f908152604090205481565b6101be6103b4366004610838565b60036020525f908152604090205481565b6103ec7f000000000000000000000000000000000000000000000000000000000000000081565b6040516001600160a01b039091168152602001610132565b5f60038161042161041a36899003890189610bd7565b60a0902090565b81526020019081526020015f205f81548092919061043e90610c71565b9091555063021d0ee760e41b979650505050505050565b5f60028161046b61041a36899003890189610bd7565b81526020019081526020015f205f81548092919061048890610c71565b9091555063259982e560e01b979650505050505050565b5f604051630a85dc2960e01b815260040160405180910390fd5b5f808080806104d061041a368b90038b018b610bd7565b81526020019081526020015f205f8154809291906104ed90610c71565b909155506315d7892d60e21b995f99508998509650505050505050565b5f80604051630a85dc2960e01b815260040160405180910390fd5b6060336001600160a01b037f000000000000000000000000000000000000000000000000000000000000000016146105705760405163570c108560e11b815260040160405180910390fd5b61057a83836105d2565b90505b92915050565b5f8060018161059a61041a368b90038b018b610bd7565b81526020019081526020015f205f8154809291906105b790610c71565b9091555063b47b2fb160e01b995f9950975050505050505050565b60605f80306001600160a01b031685856040516105f0929190610c95565b5f604051808303815f865af19150503d805f8114610629576040519150601f19603f3d011682016040523d82523d5f602084013e61062e565b606091505b5091509150811561064257915061057d9050565b80515f03610663576040516314815f4760e31b815260040160405180910390fd5b805160208201fd5b6001600160a01b038116811461067f575f80fd5b50565b803561068d8161066b565b919050565b5f60a082840312156106a2575f80fd5b50919050565b5f608082840312156106a2575f80fd5b5f8083601f8401126106c8575f80fd5b50813567ffffffffffffffff8111156106df575f80fd5b6020830191508360208285010111156106f6575f80fd5b9250929050565b5f805f805f6101608688031215610712575f80fd5b853561071d8161066b565b945061072c8760208801610692565b935061073b8760c088016106a8565b925061014086013567ffffffffffffffff811115610757575f80fd5b610763888289016106b8565b969995985093965092949392505050565b5f805f805f6101008688031215610789575f80fd5b85356107948161066b565b94506107a38760208801610692565b935060c08601356107b38161066b565b925060e086013567ffffffffffffffff811115610757575f80fd5b5f606082840312156106a2575f80fd5b5f805f805f61014086880312156107f3575f80fd5b85356107fe8161066b565b945061080d8760208801610692565b935061081c8760c088016107ce565b925061012086013567ffffffffffffffff811115610757575f80fd5b5f60208284031215610848575f80fd5b5035919050565b5f805f805f805f6101a0888a031215610866575f80fd5b87356108718161066b565b96506108808960208a01610692565b955061088f8960c08a016106a8565b94506101408801359350610160880135925061018088013567ffffffffffffffff8111156108bb575f80fd5b6108c78a828b016106b8565b989b979a50959850939692959293505050565b5f80602083850312156108eb575f80fd5b823567ffffffffffffffff811115610901575f80fd5b61090d858286016106b8565b90969095509350505050565b602081525f82518060208401528060208501604085015e5f604082850101526040601f19601f83011684010191505092915050565b8035600281900b811461068d575f80fd5b5f805f805f806101208789031215610975575f80fd5b86356109808161066b565b955061098f8860208901610692565b945060c087013561099f8161066b565b93506109ad60e0880161094e565b925061010087013567ffffffffffffffff8111156109c9575f80fd5b6109d589828a016106b8565b979a9699509497509295939492505050565b5f805f805f8061016087890312156109fd575f80fd5b8635610a088161066b565b9550610a178860208901610692565b9450610a268860c089016107ce565b9350610120870135925061014087013567ffffffffffffffff8111156109c9575f80fd5b5f805f805f806101208789031215610a60575f80fd5b8635610a6b8161066b565b9550610a7a8860208901610692565b945060c0870135935060e0870135925061010087013567ffffffffffffffff8111156109c9575f80fd5b8151151581526101c081016020830151610ac2602084018215159052565b506040830151610ad6604084018215159052565b506060830151610aea606084018215159052565b506080830151610afe608084018215159052565b5060a0830151610b1260a084018215159052565b5060c0830151610b2660c084018215159052565b5060e0830151610b3a60e084018215159052565b50610100830151610b5061010084018215159052565b50610120830151610b6661012084018215159052565b50610140830151610b7c61014084018215159052565b50610160830151610b9261016084018215159052565b50610180830151610ba861018084018215159052565b506101a0830151610bbe6101a084018215159052565b5092915050565b803562ffffff8116811461068d575f80fd5b5f60a0828403128015610be8575f80fd5b5060405160a0810167ffffffffffffffff81118282101715610c1857634e487b7160e01b5f52604160045260245ffd5b604052610c2483610682565b8152610c3260208401610682565b6020820152610c4360408401610bc5565b6040820152610c546060840161094e565b6060820152610c6560808401610682565b60808201529392505050565b5f60018201610c8e57634e487b7160e01b5f52601160045260245ffd5b5060010190565b818382375f910190815291905056fea26469706673582212203110a0624a107ba1e3f1fc3163b65553db1cf43af9795eff8a35921d3c4a82b964736f6c634300081a0033","linkReferences":{}},"methodIdentifiers":{"afterAddLiquidity(address,(address,address,uint24,int24,address),(int24,int24,int256,bytes32),int256,int256,bytes)":"9f063efc","afterDonate(address,(address,address,uint24,int24,address),uint256,uint256,bytes)":"e1b4af69","afterInitialize(address,(address,address,uint24,int24,address),uint160,int24,bytes)":"a910f80f","afterRemoveLiquidity(address,(address,address,uint24,int24,address),(int24,int24,int256,bytes32),int256,int256,bytes)":"6c2bbe7e","afterSwap(address,(address,address,uint24,int24,address),(bool,int256,uint160),int256,bytes)":"b47b2fb1","afterSwapCount(bytes32)":"dacdbe77","beforeAddLiquidity(address,(address,address,uint24,int24,address),(int24,int24,int256,bytes32),bytes)":"259982e5","beforeAddLiquidityCount(bytes32)":"c6939957","beforeDonate(address,(address,address,uint24,int24,address),uint256,uint256,bytes)":"b6a8b0fa","beforeInitialize(address,(address,address,uint24,int24,address),uint160,bytes)":"3440d820","beforeRemoveLiquidity(address,(address,address,uint24,int24,address),(int24,int24,int256,bytes32),bytes)":"21d0ee70","beforeRemoveLiquidityCount(bytes32)":"db6a9451","beforeSwap(address,(address,address,uint24,int24,address),(bool,int256,uint160),bytes)":"575e24b4","beforeSwapCount(bytes32)":"5c338d32","getHookPermissions()":"c4e833ce","poolManager()":"dc4c90d3","unlockCallback(bytes)":"91dd7346"},"id":22}