{"abi":[{"type":"constructor","inputs":[{"name":"_poolManager","type":"address","internalType":"contract IPoolManager"},{"name":"_volatilityOracle","type":"address","internalType":"contract IVolatilityOracle"}],"stateMutability":"nonpayable"},{"type":"function","name":"FEE_UPDATE_INTERVAL","inputs":[],"outputs":[{"name":"","type":"uint256","internalType":"uint256"}],"stateMutability":"view"},{"type":"function","name":"VOLATILITY_MULTIPLIER","inputs":[],"outputs":[{"name":"","type":"uint256","internalType":"uint256"}],"stateMutability":"view"},{"type":"function","name":"afterAddLiquidity","inputs":[{"name":"","type":"address","internalType":"address"},{"name":"","type":"tuple","internalType":"struct PoolKey","components":[{"name":"currency0","type":"address","internalType":"Currency"},{"name":"currency1","type":"address","internalType":"Currency"},{"name":"fee","type":"uint24","internalType":"uint24"},{"name":"tickSpacing","type":"int24","internalType":"int24"},{"name":"hooks","type":"address","internalType":"contract IHooks"}]},{"name":"","type":"tuple","internalType":"struct IPoolManager.ModifyLiquidityParams","components":[{"name":"tickLower","type":"int24","internalType":"int24"},{"name":"tickUpper","type":"int24","internalType":"int24"},{"name":"liquidityDelta","type":"int256","internalType":"int256"},{"name":"salt","type":"bytes32","internalType":"bytes32"}]},{"name":"","type":"int256","internalType":"BalanceDelta"},{"name":"","type":"int256","internalType":"BalanceDelta"},{"name":"","type":"bytes","internalType":"bytes"}],"outputs":[{"name":"","type":"bytes4","internalType":"bytes4"},{"name":"","type":"int256","internalType":"BalanceDelta"}],"stateMutability":"nonpayable"},{"type":"function","name":"afterDonate","inputs":[{"name":"","type":"address","internalType":"address"},{"name":"","type":"tuple","internalType":"struct PoolKey","components":[{"name":"currency0","type":"address","internalType":"Currency"},{"name":"currency1","type":"address","internalType":"Currency"},{"name":"fee","type":"uint24","internalType":"uint24"},{"name":"tickSpacing","type":"int24","internalType":"int24"},{"name":"hooks","type":"address","internalType":"contract IHooks"}]},{"name":"","type":"uint256","internalType":"uint256"},{"name":"","type":"uint256","internalType":"uint256"},{"name":"","type":"bytes","internalType":"bytes"}],"outputs":[{"name":"","type":"bytes4","internalType":"bytes4"}],"stateMutability":"nonpayable"},{"type":"function","name":"afterInitialize","inputs":[{"name":"","type":"address","internalType":"address"},{"name":"key","type":"tuple","internalType":"struct PoolKey","components":[{"name":"currency0","type":"address","internalType":"Currency"},{"name":"currency1","type":"address","internalType":"Currency"},{"name":"fee","type":"uint24","internalType":"uint24"},{"name":"tickSpacing","type":"int24","internalType":"int24"},{"name":"hooks","type":"address","internalType":"contract IHooks"}]},{"name":"","type":"uint160","internalType":"uint160"},{"name":"","type":"int24","internalType":"int24"},{"name":"","type":"bytes","internalType":"bytes"}],"outputs":[{"name":"","type":"bytes4","internalType":"bytes4"}],"stateMutability":"nonpayable"},{"type":"function","name":"afterRemoveLiquidity","inputs":[{"name":"","type":"address","internalType":"address"},{"name":"","type":"tuple","internalType":"struct PoolKey","components":[{"name":"currency0","type":"address","internalType":"Currency"},{"name":"currency1","type":"address","internalType":"Currency"},{"name":"fee","type":"uint24","internalType":"uint24"},{"name":"tickSpacing","type":"int24","internalType":"int24"},{"name":"hooks","type":"address","internalType":"contract IHooks"}]},{"name":"","type":"tuple","internalType":"struct IPoolManager.ModifyLiquidityParams","components":[{"name":"tickLower","type":"int24","internalType":"int24"},{"name":"tickUpper","type":"int24","internalType":"int24"},{"name":"liquidityDelta","type":"int256","internalType":"int256"},{"name":"salt","type":"bytes32","internalType":"bytes32"}]},{"name":"","type":"int256","internalType":"BalanceDelta"},{"name":"","type":"int256","internalType":"BalanceDelta"},{"name":"","type":"bytes","internalType":"bytes"}],"outputs":[{"name":"","type":"bytes4","internalType":"bytes4"},{"name":"","type":"int256","internalType":"BalanceDelta"}],"stateMutability":"nonpayable"},{"type":"function","name":"afterSwap","inputs":[{"name":"","type":"address","internalType":"address"},{"name":"","type":"tuple","internalType":"struct PoolKey","components":[{"name":"currency0","type":"address","internalType":"Currency"},{"name":"currency1","type":"address","internalType":"Currency"},{"name":"fee","type":"uint24","internalType":"uint24"},{"name":"tickSpacing","type":"int24","internalType":"int24"},{"name":"hooks","type":"address","internalType":"contract IHooks"}]},{"name":"","type":"tuple","internalType":"struct IPoolManager.SwapParams","components":[{"name":"zeroForOne","type":"bool","internalType":"bool"},{"name":"amountSpecified","type":"int256","internalType":"int256"},{"name":"sqrtPriceLimitX96","type":"uint160","internalType":"uint160"}]},{"name":"","type":"int256","internalType":"BalanceDelta"},{"name":"","type":"bytes","internalType":"bytes"}],"outputs":[{"name":"","type":"bytes4","internalType":"bytes4"},{"name":"","type":"int128","internalType":"int128"}],"stateMutability":"nonpayable"},{"type":"function","name":"beforeAddLiquidity","inputs":[{"name":"","type":"address","internalType":"address"},{"name":"","type":"tuple","internalType":"struct PoolKey","components":[{"name":"currency0","type":"address","internalType":"Currency"},{"name":"currency1","type":"address","internalType":"Currency"},{"name":"fee","type":"uint24","internalType":"uint24"},{"name":"tickSpacing","type":"int24","internalType":"int24"},{"name":"hooks","type":"address","internalType":"contract IHooks"}]},{"name":"","type":"tuple","internalType":"struct IPoolManager.ModifyLiquidityParams","components":[{"name":"tickLower","type":"int24","internalType":"int24"},{"name":"tickUpper","type":"int24","internalType":"int24"},{"name":"liquidityDelta","type":"int256","internalType":"int256"},{"name":"salt","type":"bytes32","internalType":"bytes32"}]},{"name":"","type":"bytes","internalType":"bytes"}],"outputs":[{"name":"","type":"bytes4","internalType":"bytes4"}],"stateMutability":"nonpayable"},{"type":"function","name":"beforeDonate","inputs":[{"name":"","type":"address","internalType":"address"},{"name":"","type":"tuple","internalType":"struct PoolKey","components":[{"name":"currency0","type":"address","internalType":"Currency"},{"name":"currency1","type":"address","internalType":"Currency"},{"name":"fee","type":"uint24","internalType":"uint24"},{"name":"tickSpacing","type":"int24","internalType":"int24"},{"name":"hooks","type":"address","internalType":"contract IHooks"}]},{"name":"","type":"uint256","internalType":"uint256"},{"name":"","type":"uint256","internalType":"uint256"},{"name":"","type":"bytes","internalType":"bytes"}],"outputs":[{"name":"","type":"bytes4","internalType":"bytes4"}],"stateMutability":"nonpayable"},{"type":"function","name":"beforeInitialize","inputs":[{"name":"","type":"address","internalType":"address"},{"name":"","type":"tuple","internalType":"struct PoolKey","components":[{"name":"currency0","type":"address","internalType":"Currency"},{"name":"currency1","type":"address","internalType":"Currency"},{"name":"fee","type":"uint24","internalType":"uint24"},{"name":"tickSpacing","type":"int24","internalType":"int24"},{"name":"hooks","type":"address","internalType":"contract IHooks"}]},{"name":"","type":"uint160","internalType":"uint160"},{"name":"","type":"bytes","internalType":"bytes"}],"outputs":[{"name":"","type":"bytes4","internalType":"bytes4"}],"stateMutability":"nonpayable"},{"type":"function","name":"beforeRemoveLiquidity","inputs":[{"name":"","type":"address","internalType":"address"},{"name":"","type":"tuple","internalType":"struct PoolKey","components":[{"name":"currency0","type":"address","internalType":"Currency"},{"name":"currency1","type":"address","internalType":"Currency"},{"name":"fee","type":"uint24","internalType":"uint24"},{"name":"tickSpacing","type":"int24","internalType":"int24"},{"name":"hooks","type":"address","internalType":"contract IHooks"}]},{"name":"","type":"tuple","internalType":"struct IPoolManager.ModifyLiquidityParams","components":[{"name":"tickLower","type":"int24","internalType":"int24"},{"name":"tickUpper","type":"int24","internalType":"int24"},{"name":"liquidityDelta","type":"int256","internalType":"int256"},{"name":"salt","type":"bytes32","internalType":"bytes32"}]},{"name":"","type":"bytes","internalType":"bytes"}],"outputs":[{"name":"","type":"bytes4","internalType":"bytes4"}],"stateMutability":"nonpayable"},{"type":"function","name":"beforeSwap","inputs":[{"name":"","type":"address","internalType":"address"},{"name":"","type":"tuple","internalType":"struct PoolKey","components":[{"name":"currency0","type":"address","internalType":"Currency"},{"name":"currency1","type":"address","internalType":"Currency"},{"name":"fee","type":"uint24","internalType":"uint24"},{"name":"tickSpacing","type":"int24","internalType":"int24"},{"name":"hooks","type":"address","internalType":"contract IHooks"}]},{"name":"","type":"tuple","internalType":"struct IPoolManager.SwapParams","components":[{"name":"zeroForOne","type":"bool","internalType":"bool"},{"name":"amountSpecified","type":"int256","internalType":"int256"},{"name":"sqrtPriceLimitX96","type":"uint160","internalType":"uint160"}]},{"name":"","type":"bytes","internalType":"bytes"}],"outputs":[{"name":"","type":"bytes4","internalType":"bytes4"},{"name":"","type":"int256","internalType":"BeforeSwapDelta"},{"name":"","type":"uint24","internalType":"uint24"}],"stateMutability":"nonpayable"},{"type":"function","name":"getFee","inputs":[],"outputs":[{"name":"","type":"uint24","internalType":"uint24"}],"stateMutability":"view"},{"type":"function","name":"getHookPermissions","inputs":[],"outputs":[{"name":"","type":"tuple","internalType":"struct Hooks.Permissions","components":[{"name":"beforeInitialize","type":"bool","internalType":"bool"},{"name":"afterInitialize","type":"bool","internalType":"bool"},{"name":"beforeAddLiquidity","type":"bool","internalType":"bool"},{"name":"afterAddLiquidity","type":"bool","internalType":"bool"},{"name":"beforeRemoveLiquidity","type":"bool","internalType":"bool"},{"name":"afterRemoveLiquidity","type":"bool","internalType":"bool"},{"name":"beforeSwap","type":"bool","internalType":"bool"},{"name":"afterSwap","type":"bool","internalType":"bool"},{"name":"beforeDonate","type":"bool","internalType":"bool"},{"name":"afterDonate","type":"bool","internalType":"bool"},{"name":"beforeSwapReturnDelta","type":"bool","internalType":"bool"},{"name":"afterSwapReturnDelta","type":"bool","internalType":"bool"},{"name":"afterAddLiquidityReturnDelta","type":"bool","internalType":"bool"},{"name":"afterRemoveLiquidityReturnDelta","type":"bool","internalType":"bool"}]}],"stateMutability":"pure"},{"type":"function","name":"lastFeeUpdate","inputs":[],"outputs":[{"name":"","type":"uint256","internalType":"uint256"}],"stateMutability":"view"},{"type":"function","name":"poolManager","inputs":[],"outputs":[{"name":"","type":"address","internalType":"contract IPoolManager"}],"stateMutability":"view"},{"type":"function","name":"unlockCallback","inputs":[{"name":"data","type":"bytes","internalType":"bytes"}],"outputs":[{"name":"","type":"bytes","internalType":"bytes"}],"stateMutability":"nonpayable"},{"type":"function","name":"volatilityOracle","inputs":[],"outputs":[{"name":"","type":"address","internalType":"contract IVolatilityOracle"}],"stateMutability":"view"},{"type":"error","name":"HookNotImplemented","inputs":[]},{"type":"error","name":"InvalidPool","inputs":[]},{"type":"error","name":"LockFailure","inputs":[]},{"type":"error","name":"NotPoolManager","inputs":[]},{"type":"error","name":"NotSelf","inputs":[]}],"bytecode":{"object":"0x60c060405234801561000f575f80fd5b5060405161100638038061100683398101604081905261002e916102c7565b6001600160a01b0382166080528161004530610058565b506001600160a01b031660a052506102ff565b61014b81610146604080516101c0810182525f80825260208201819052918101829052606081018290526080810182905260a0810182905260c0810182905260e08101829052610100810182905261012081018290526101408101829052610160810182905261018081018290526101a081019190915250604080516101c0810182525f808252600160208301819052928201819052606082018190526080820181905260a0820181905260c082019290925260e08101829052610100810182905261012081018290526101408101829052610160810182905261018081018290526101a081019190915290565b61014e565b50565b80511515612000831615151415806101725750602081015115156110008316151514155b806101895750604081015115156108008316151514155b806101a05750606081015115156104008316151514155b806101b75750608081015115156102008316151514155b806101ce575060a081015115156101008316151514155b806101e4575060c0810151151560808316151514155b806101fa575060e0810151151560408316151514155b806102115750610100810151151560208316151514155b806102285750610120810151151560108316151514155b8061023f5750610140810151151560088316151514155b806102565750610160810151151560048316151514155b8061026d5750610180810151151560028316151514155b8061028457506101a0810151151560018316151514155b1561029a5761029a630732d7b560e51b8361029e565b5050565b815f526001600160a01b03811660045260245ffd5b6001600160a01b038116811461014b575f80fd5b5f80604083850312156102d8575f80fd5b82516102e3816102b3565b60208401519092506102f4816102b3565b809150509250929050565b60805160a051610cd16103355f395f8181610159015261052601525f81816103ac0152818161043501526104aa0152610cd15ff3fe608060405234801561000f575f80fd5b5060043610610111575f3560e01c8063a910f80f1161009e578063c4e833ce1161006e578063c4e833ce14610294578063ced72f871461038b578063dc4c90d3146103a7578063e1b4af691461027e578063e844297e146103ce575f80fd5b8063a910f80f1461023a578063b47b2fb11461024d578063b6a8b0fa1461027e578063b96bedb21461028c575f80fd5b8063575e24b4116100e4578063575e24b4146101935780636c2bbe7e146101d15780636e49e1ff1461020457806391dd73461461021a5780639f063efc146101d1575f80fd5b806321d0ee7014610115578063259982e5146101155780633440d8201461014657806355b13a4f14610154575b5f80fd5b6101286101233660046106e2565b6103d7565b6040516001600160e01b031990911681526020015b60405180910390f35b610128610123366004610759565b61017b7f000000000000000000000000000000000000000000000000000000000000000081565b6040516001600160a01b03909116815260200161013d565b6101a66101a13660046107c3565b6103f1565b604080516001600160e01b03199094168452602084019290925262ffffff169082015260600161013d565b6101e46101df36600461081d565b61040d565b604080516001600160e01b0319909316835260208301919091520161013d565b61020c606481565b60405190815260200161013d565b61022d6102283660046108a8565b610428565b60405161013d91906108e7565b610128610248366004610932565b610486565b61025b6101df3660046109ba565b604080516001600160e01b03199093168352600f9190910b60208301520161013d565b610128610123366004610a1d565b61020c5f5481565b61037e604080516101c0810182525f80825260208201819052918101829052606081018290526080810182905260a0810182905260c0810182905260e08101829052610100810182905261012081018290526101408101829052610160810182905261018081018290526101a081019190915250604080516101c0810182525f808252600160208301819052928201819052606082018190526080820181905260a0820181905260c082019290925260e08101829052610100810182905261012081018290526101408101829052610160810182905261018081018290526101a081019190915290565b60405161013d9190610a77565b610393610522565b60405162ffffff909116815260200161013d565b61017b7f000000000000000000000000000000000000000000000000000000000000000081565b61020c610e1081565b5f604051630a85dc2960e01b815260040160405180910390fd5b5f805f604051630a85dc2960e01b815260040160405180910390fd5b5f80604051630a85dc2960e01b815260040160405180910390fd5b6060336001600160a01b037f000000000000000000000000000000000000000000000000000000000000000016146104735760405163570c108560e11b815260040160405180910390fd5b61047d83836105c7565b90505b92915050565b5f80610490610522565b604051635275965160e01b81529091506001600160a01b037f000000000000000000000000000000000000000000000000000000000000000016906352759651906104e1908a908590600401610ba3565b5f604051808303815f87803b1580156104f8575f80fd5b505af115801561050a573d5f803e3d5ffd5b5063a910f80f60e01b9b9a5050505050505050505050565b5f807f00000000000000000000000000000000000000000000000000000000000000006001600160a01b031663d989aa0e6040518163ffffffff1660e01b8152600401602060405180830381865afa158015610580573d5f803e3d5ffd5b505050506040513d601f19601f820116820180604052508101906105a49190610c33565b90505f5f196105b662ffffff84610c4a565b6105c09190610c6d565b9392505050565b60605f80306001600160a01b031685856040516105e5929190610c8c565b5f604051808303815f865af19150503d805f811461061e576040519150601f19603f3d011682016040523d82523d5f602084013e610623565b606091505b509150915081156106375791506104809050565b80515f03610658576040516314815f4760e31b815260040160405180910390fd5b805160208201fd5b6001600160a01b0381168114610674575f80fd5b50565b5f60a08284031215610687575f80fd5b50919050565b5f60808284031215610687575f80fd5b5f8083601f8401126106ad575f80fd5b50813567ffffffffffffffff8111156106c4575f80fd5b6020830191508360208285010111156106db575f80fd5b9250929050565b5f805f805f61016086880312156106f7575f80fd5b853561070281610660565b94506107118760208801610677565b93506107208760c0880161068d565b925061014086013567ffffffffffffffff81111561073c575f80fd5b6107488882890161069d565b969995985093965092949392505050565b5f805f805f610100868803121561076e575f80fd5b853561077981610660565b94506107888760208801610677565b935060c086013561079881610660565b925060e086013567ffffffffffffffff81111561073c575f80fd5b5f60608284031215610687575f80fd5b5f805f805f61014086880312156107d8575f80fd5b85356107e381610660565b94506107f28760208801610677565b93506108018760c088016107b3565b925061012086013567ffffffffffffffff81111561073c575f80fd5b5f805f805f805f6101a0888a031215610834575f80fd5b873561083f81610660565b965061084e8960208a01610677565b955061085d8960c08a0161068d565b94506101408801359350610160880135925061018088013567ffffffffffffffff811115610889575f80fd5b6108958a828b0161069d565b989b979a50959850939692959293505050565b5f80602083850312156108b9575f80fd5b823567ffffffffffffffff8111156108cf575f80fd5b6108db8582860161069d565b90969095509350505050565b602081525f82518060208401528060208501604085015e5f604082850101526040601f19601f83011684010191505092915050565b8035600281900b811461092d575f80fd5b919050565b5f805f805f806101208789031215610948575f80fd5b863561095381610660565b95506109628860208901610677565b945060c087013561097281610660565b935061098060e0880161091c565b925061010087013567ffffffffffffffff81111561099c575f80fd5b6109a889828a0161069d565b979a9699509497509295939492505050565b5f805f805f8061016087890312156109d0575f80fd5b86356109db81610660565b95506109ea8860208901610677565b94506109f98860c089016107b3565b9350610120870135925061014087013567ffffffffffffffff81111561099c575f80fd5b5f805f805f806101208789031215610a33575f80fd5b8635610a3e81610660565b9550610a4d8860208901610677565b945060c0870135935060e0870135925061010087013567ffffffffffffffff81111561099c575f80fd5b8151151581526101c081016020830151610a95602084018215159052565b506040830151610aa9604084018215159052565b506060830151610abd606084018215159052565b506080830151610ad1608084018215159052565b5060a0830151610ae560a084018215159052565b5060c0830151610af960c084018215159052565b5060e0830151610b0d60e084018215159052565b50610100830151610b2361010084018215159052565b50610120830151610b3961012084018215159052565b50610140830151610b4f61014084018215159052565b50610160830151610b6561016084018215159052565b50610180830151610b7b61018084018215159052565b506101a0830151610b916101a084018215159052565b5092915050565b803561092d81610660565b60c081018335610bb281610660565b6001600160a01b031682526020840135610bcb81610660565b6001600160a01b03166020830152604084013562ffffff8116808214610bef575f80fd5b604084015250610c016060850161091c565b60020b6060830152610c1560808501610b98565b6001600160a01b0316608083015262ffffff831660a08301526105c0565b5f60208284031215610c43575f80fd5b5051919050565b808202811582820484141761048057634e487b7160e01b5f52601160045260245ffd5b5f82610c8757634e487b7160e01b5f52601260045260245ffd5b500490565b818382375f910190815291905056fea264697066735822122075fc0879e36f17ad6176076356ec6669e793e726a27eb294cda3389dd5e533f264736f6c634300081a0033","linkReferences":{}},"methodIdentifiers":{"FEE_UPDATE_INTERVAL()":"e844297e","VOLATILITY_MULTIPLIER()":"6e49e1ff","afterAddLiquidity(address,(address,address,uint24,int24,address),(int24,int24,int256,bytes32),int256,int256,bytes)":"9f063efc","afterDonate(address,(address,address,uint24,int24,address),uint256,uint256,bytes)":"e1b4af69","afterInitialize(address,(address,address,uint24,int24,address),uint160,int24,bytes)":"a910f80f","afterRemoveLiquidity(address,(address,address,uint24,int24,address),(int24,int24,int256,bytes32),int256,int256,bytes)":"6c2bbe7e","afterSwap(address,(address,address,uint24,int24,address),(bool,int256,uint160),int256,bytes)":"b47b2fb1","beforeAddLiquidity(address,(address,address,uint24,int24,address),(int24,int24,int256,bytes32),bytes)":"259982e5","beforeDonate(address,(address,address,uint24,int24,address),uint256,uint256,bytes)":"b6a8b0fa","beforeInitialize(address,(address,address,uint24,int24,address),uint160,bytes)":"3440d820","beforeRemoveLiquidity(address,(address,address,uint24,int24,address),(int24,int24,int256,bytes32),bytes)":"21d0ee70","beforeSwap(address,(address,address,uint24,int24,address),(bool,int256,uint160),bytes)":"575e24b4","getFee()":"ced72f87","getHookPermissions()":"c4e833ce","lastFeeUpdate()":"b96bedb2","poolManager()":"dc4c90d3","unlockCallback(bytes)":"91dd7346","volatilityOracle()":"55b13a4f"},"id":22}