{"abi":[{"type":"constructor","inputs":[{"name":"_poolManager","type":"address","internalType":"contract IPoolManager"}],"stateMutability":"nonpayable"},{"type":"function","name":"poolManager","inputs":[],"outputs":[{"name":"","type":"address","internalType":"contract IPoolManager"}],"stateMutability":"view"}],"bytecode":{"object":"0x60a0604052348015600e575f80fd5b5060405161011d38038061011d833981016040819052602b91603b565b6001600160a01b03166080526066565b5f60208284031215604a575f80fd5b81516001600160a01b0381168114605f575f80fd5b9392505050565b60805160a261007b5f395f602e015260a25ff3fe6080604052348015600e575f80fd5b50600436106026575f3560e01c8063dc4c90d314602a575b5f80fd5b60507f000000000000000000000000000000000000000000000000000000000000000081565b6040516001600160a01b03909116815260200160405180910390f3fea2646970667358221220d58edd416a975816ea9c79517943b76cc19940a602c6bbc0dd2c1441b69faeae64736f6c634300081a0033","linkReferences":{}},"methodIdentifiers":{"poolManager()":"dc4c90d3"},"id":19}